:100000000C94EE000C940D010C940D010C940D0158
:100010000C940D010C940D010C940D010C940D0128
:100020000C940D010C940D010C940D010C940D0118
:100030000C940D010C940D010C940D010C947A0498
:100040000C940D010C940D010C940D010C940D01F8
:100050000C940D010C940D010C940D010C940D01E8
:100060000C940D010C940D010C940D010C940D01D8
:100070000C940D010C940D010C940D010C940D01C8
:100080000C940D010C940D010C940D016E616E0029
:10009000696E66006364696E6F70737578585B652E
:1000A000666745464700616E006E66696E697479E1
:1000B00000CDCCCC3D0AD7233C17B7D13877CC2B19
:1000C000329595E6241FB14F0A000020410000C878
:1000D0004200401C4620BCBE4CCA1B0E5AAEC59DF9
:1000E0007400407A10F35A00A0724E18090010A54F
:1000F000D4E80000E87648170000E40B5402000042
:10010000CA9A3B000000E1F50500008096980000C7
:100110000040420F000000A08601000000102700F0
:10012000000000E803000000006400000000000A76
:1001300000000000000100000000002C76D888DCE0
:10014000674F0823DFC1DFAE59E1B1B796E5E3E4BD
:1001500053C63AE651997696E8E6C28426EB898C36
:100160009B62ED407C6FFCEFBC9C9F40F2BAA56F98
:10017000A5F490055A2AF75C936B6CF9676DC11B67
:10018000FCE0E40D47FEF520E6B500D0ED902E032F
:1001900000943577050080841E080000204E0A0078
:1001A0000000C80C333333330F986E12831141EFC4
:1001B0008D2114893BE65516CFFEE6DB18D1844B22
:1001C000381BF77C1D901DA4BBE424203284725E92
:1001D000228100C9F124ECA1E53D270011241FBEB6
:1001E000CFEFD0E1DEBFCDBF11E0A0E0B1E0E6E8A7
:1001F000FCE200E00BBF02C007900D92A636B107EB
:10020000D9F714E0A6E6B1E001C01D92AC3CB107FD
:10021000E1F70E940F010C9441160C9400002F92FC
:100220003F924F925F926F927F928F929F92AF9286
:10023000BF92CF92DF92EF92FF920F93DF93CF9313
:1002400000D000D0CDB7DEB71A8219821C821B8283
:100250000E9422050E945B04789480E091E00E9455
:100260007F155AE1252E51E0352E7E010894E11CC0
:10027000F11C4DE1442E41E0542E3FE2632E31E06B
:10028000732E23E0822E912C8C0E9D1E91E4A92EBC
:1002900091E0B92E84E1C82E81E0D82E00D089E00B
:1002A00091E0EDB7FEB7928381830E946D1500D077
:1002B000EDB7FEB732822182F482E3820E94B41548
:1002C0000F900F900F900F9081E060E048E0970151
:1002D0000E94E90790E0009771F000D000D0EDB7E0
:1002E000FEB752824182948383830E946D150F90E2
:1002F0000F900F900F9081E068EC4FEF20E00FEF30
:100300000E94350890E0009771F000D000D0EDB762
:10031000FEB772826182948383830E946D150F9071
:100320000F900F900F9081E064E648E094010E94E6
:10033000720790E0009771F000D000D0EDB7FEB7E3
:10034000B282A182948383830E946D150F900F90D7
:100350000F900F9088E893E1F6013197F1F701973C
:1003600009F49CCFF9CF762F843010F192B1482F49
:1003700050E021E030E002C0220F331F8A95E2F7FF
:10038000822F8095892382B983B1822B83B96AB782
:10039000872F90E044505040440F551F02C0880FF3
:1003A000991F4A95E2F7682B6ABF89B7282B29BFA6
:1003B0000895382F843088F022B181E090E002C0A7
:1003C000880F991F3A95E2F7282B22B923B180951F
:1003D000282323B929B7822389BF08950F93DF9378
:1003E000CF9300D0CDB7DEB75A834983482F4695C7
:1003F0004F5F582F51706130C9F0613020F062308A
:1004000001F182E03CC0E981FA81E230F105A0F51A
:1004100021E030E002C0220F331F5A95E2F7842F0B
:1004200068EC422F0E2F0E94B30622C029813A8128
:1004300082E02030380700F58FEF91E0821B930BAC
:1004400008C089819A8121E08F3F9207A8F48050EB
:100450009E4F9A838983652F70E061507040660FCC
:10046000771F842F42E09E012F5F3F4F0E94B70508
:10047000882321F0865F03C083E001C080E00F90F5
:100480000F90CF91DF910F910895DF92EF92FF923D
:100490000F931F93CF93DF930CE711E0CCE8D1E0EB
:1004A0009CE9E92E91E0F92EDD24F801808191810B
:1004B000A281B3810197A105B10511F52881398188
:1004C0004A815B81F70180819181A281B3812817E4
:1004D00039074A075B0760F08D2D60E040E050E08F
:1004E0000E94EE01F801108211821282138208C06C
:1004F0002F5F3F4F4F4F5F4F288339834A835B8382
:10050000D3940C5F1F4F249684E090E0E80EF91E10
:1005100094E0D91651F6DF91CF911F910F91FF9082
:10052000EF90DF900895DF92EF92FF920F931F9369
:10053000CF93DF93D82E7A018B0160E041E050E049
:100540000E94EE01CD2DD0E0CC0FDD1FCC0FDD1FC2
:10055000FE01E458FE4F81E090E0A0E0B0E080832F
:100560009183A283B383FE01E457FE4F1082118270
:1005700012821382C456DE4FE882F9820A831B83FB
:1005800080E0DF91CF911F910F91FF90EF90DF906E
:1005900008951F93CF93DF93182FE82FF0E0EF011A
:1005A000C859DE4F8881882379F1EE0FFF1FDF01E4
:1005B000A459BE4F2D913C911197EC58FE4F80816C
:1005C00091812817390760F0812F60E040E050E00A
:1005D0000E94EE01188287E0811B0E94D90114C09D
:1005E0002F5F3F4F2D933C9300D000D083E591E0E7
:1005F000EDB7FEB792838183348323830E946D1508
:100600000F900F900F900F90DF91CF911F91089551
:10061000EF92FF921F93182F7B0160E041E050E0C2
:100620000E94EE01E12FF0E0DF01A859BE4F81E00A
:100630008C93EE0FFF1FDF01A459BE4F1D921C9239
:10064000EC58FE4FF182E08287E0811B63E00E945C
:10065000B30180E01F91FF90EF9008951F93182F32
:10066000653B10F083E023C070E080E090E00E94E2
:100670000F0B20E030E040E651E40E949D0B20E0AB
:1006800030E04FE254E40E947F0A0E94E30A112303
:1006900029F4709383006093820008C0113011F038
:1006A00081E005C0709385006093840080E01F9115
:1006B000089580E06EE10E942E0381E06EE10E94C9
:1006C0002E0388E893E124E131E0F9013197F1F755
:1006D0000197D9F780E060E00E942E0381E060E09E
:1006E0000E942E030895EBE8F0E080818A6A8083FF
:1006F000EAE8F0E080818A61808388E59DE6909356
:1007000081008093800082B1806382B91C981D981B
:10071000089515BC85B5886085BD85B585BD85B551
:10072000836085BD14BC87B7806887BF8BEA83BDB3
:1007300008951F93182F8A3019F48DE00E949903B1
:100740005D9BFECF1CB980E090E01F9108951F9340
:10075000BC015F9BFECF1CB1812F0E949903812FAA
:1007600090E01F910895382F843010F081E00895B3
:10077000483010F082E00895822F90E002C0880F88
:10078000991F4A95E2F7282F313089F0313028F04F
:100790003230B9F03330F1F41FC08AB3862B8ABBF4
:1007A0008BB3262360958623282B2BBB13C087B3DE
:1007B000862B87BB88B3262360958623282B28BBEE
:1007C00009C084B3862B84BB85B32623609586231A
:1007D000282B25BB80E0089582B1862B82B983B196
:1007E000262360958623282B23B980E00895F901FC
:1007F000843010F081E00895483010F082E00895D0
:100800008130B9F0813028F0823019F18330C1F5A0
:1008100039C08AB3882329F09AB3862F809589231B
:1008200005C08AB3882319F4862F80958ABB89B3C3
:100830001FC087B3882329F097B3862F809589231B
:1008400005C087B3882319F4862F809587BB86B3AC
:100850000FC084B3882329F094B3862F8095892311
:1008600005C084B3882319F4862F809584BB83B395
:10087000862390E002C0959587954A95E2F780839C
:1008800080E0089582B1882329F092B1862F809567
:10089000892305C082B1882319F4862F809582B9F7
:1008A00081B1862390E002C0959587954A95E2F73D
:1008B000808380E0089512BE82E087BF88ED81BF0B
:1008C00083B78A6083BF1092C50480E008952091A9
:1008D000C5042A3010F081E00895E22FF0E0EE0F19
:1008E000FF1FE055FE4F918380832F5F2093C50447
:1008F00080E008951F920F920FB60F920BB60F92E1
:1009000011241F932F933F934F935F936F937F9384
:100910008F939F93AF93BF93EF93FF9310E00BC020
:10092000E12FF0E0EE0FFF1FE055FE4F0190F08148
:10093000E02D09951F5F8091C504181788F3FF917A
:10094000EF91BF91AF919F918F917F916F915F9147
:100950004F913F912F911F910F900BBE0F900FBEA3
:100960000F901F901895DF92EF92FF920F931F93B5
:10097000CF93DF93082FD62EE72E813210F081E03F
:100980002AC00E94DB088B3A29F50E94DB088B3ACB
:1009900009F50E94DB088B3AE9F40E94DB08F82E87
:1009A000182F8D2D9E2D9C01E90104C00E94DB08AB
:1009B0008993180F9E012D192017C0F30E94DB08A0
:1009C000F01611F083E007C0811711F480E003C036
:1009D00084E001C082E0DF91CF911F910F91FF90E1
:1009E000EF90DF900895EF92FF920F931F93CF93B4
:1009F000DF93082F7B01813210F081E01CC08AEA6E
:100A00000E94D7088AEA0E94D7088AEA0E94D7087B
:100A1000802F0E94D708102FE70105C088810E940F
:100A2000D7088991180F9E012E192017B8F3812F2E
:100A30000E94D70880E0DF91CF911F910F91FF9026
:100A4000EF9008951092900091E199B98AB1886170
:100A50008AB9E5E9F0E08081866080831092980091
:100A600090939900EAE9F0E0808188618083EDE964
:100A7000F0E080818660808387E591E09093C904EF
:100A80008093C8049093C7048093C60487B3806E94
:100A900087BB80E00E94780880E00895E82FD901A4
:100AA000883010F081E00895683C21F06330D0F088
:100AB00082E00895842F90E0029794F4F0E095E0AE
:100AC000EE0FFF1F9A95E1F7EB53FE4F80818C9359
:100AD00005C081918D93A417B507D9F780E00895DB
:100AE00083E0089570E050E0CA01860F971F0597D4
:100AF000BCF7F0E085E0EE0FFF1F8A95E1F7E60F07
:100B0000F71FEB53FC4F420F531FE5CF87E087BB26
:100B100087B3806E87BB89E58DB90895EF92FF9208
:100B20000F931F93162F042F79010E947808412FED
:100B300050E0F701E40FF51F20E030E0BA01601B40
:100B4000710907C080818FB9779BFECF2F5F3F4F20
:100B50003197CA01821B930B681779079CF380E0D9
:100B60000E9478081F910F91FF90EF9008954F9287
:100B70005F926F927F928F929F92AF92BF92DF921D
:100B8000EF92FF920F931F93DF93CF9300D000D08B
:100B90000F92CDB7DEB7D82E390187E08D1510F44E
:100BA00081E0CCC0643010F082E0C8C070E08B01FE
:100BB000040F111D0530110514F083E0BFC01D8224
:100BC000442455244B018D2D90E065E0880F991F3A
:100BD0006A95E1F7BC016B537C4F5B010894A11C43
:100BE000B11C9C0129533C4F43E0E42EF12CE60E4E
:100BF000F71E28C0F301E50FF11DE081813091055A
:100C000071F0823091051CF4892B39F018C08230C4
:100C1000910561F0039799F40BC0DB010FC0E4303C
:100C200018F0E3E0B1E0BD83D50108C0D90106C0EA
:100C3000E43018F0E3E0B1E0BD83D701EC93089411
:100C4000411C511CC201880D991D542D801791071C
:100C50008CF287E087BB87B3806E87BB89E58DB94F
:100C60000D2D10E0B80195E0660F771F9A95E1F71A
:100C7000FB01EB53FE4F208130E040E050E02F704D
:100C800030704070507082E0220F331F441F551F98
:100C90008A95D1F76B537C4FFB01818190E0A0E0F6
:100CA000B0E083709070A070B070282B392B4A2B65
:100CB0005B2B542F432F322F2227808190E0A0E01E
:100CC000B0E0282B392B4A2B5B2BA2E0220F331FDD
:100CD000441F551FAA95D1F7838190E0A0E0B0E0B2
:100CE00083709070A070B070282B392B4A2B5B2B2F
:100CF000542F432F322F222765E0000F111F6A95D2
:100D0000E1F709531C4FD8018C9190E0A0E0B0E0CE
:100D1000282B392B4A2B5B2B29833A834B835C830B
:100D20008D2D62E043E09E012F5F3F4F0E948E05B4
:100D3000BD81B13011F080E001C084E00F900F90D0
:100D40000F900F900F90CF91DF911F910F91FF9017
:100D5000EF90DF90BF90AF909F908F907F906F90BB
:100D60005F904F900895FF920F931F93DF93CF935F
:100D700000D000D0CDB7DEB7F82E87E08F1510F485
:100D800081E085C0683C11F082E081C0283010F01D
:100D900083E07DC0802F90E002C0880F991F2A95C4
:100DA000E2F7242F2823243010F084E070C00F2DA8
:100DB00010E0B80195E0660F771F9A95E1F7FB0107
:100DC000EB53FE4F208387E087BB87B3806E87BBE2
:100DD00089E58DB930E040E050E02F703070407010
:100DE000507082E0220F331F441F551F8A95D1F7A0
:100DF0006B537C4FFB01818190E0A0E0B0E08370F9
:100E00009070A070B070282B392B4A2B5B2B542F7D
:100E1000432F322F2227808190E0A0E0B0E0282BE2
:100E2000392B4A2B5B2BA2E0220F331F441F551F87
:100E3000AA95D1F7838190E0A0E0B0E08370907034
:100E4000A070B070282B392B4A2B5B2B542F432FCB
:100E5000322F222775E0000F111F7A95E1F7095311
:100E60001C4FF801808190E0A0E0B0E0282B392BE6
:100E70004A2B5B2B29833A834B835C838F2D62E063
:100E800043E09E012F5F3F4F0E948E0580E00F9050
:100E90000F900F900F90CF91DF911F910F91FF90C6
:100EA000089547E058EBE1E0F0E0682F70E0852F0F
:100EB0008A95F1F7C19A9F01042E02C0220F331FB9
:100EC0000A94E2F7C901862397238217930711F04A
:100ED000C29801C0C29A852F8A95F1F7C1984150F6
:100EE00030F70895FF920F931F93CF93DF93082F4E
:100EF000162FF42EE9010E947208882311F081E078
:100F000036C0812F8456883020F0183CB1F182E041
:100F10002EC0612F70E04F2D50E0CA01860F971F41
:100F200084569040099710F5E02FF0E095E0EE0F21
:100F3000FF1F9A95E1F7E60FF71FEF59FC4FDE010F
:100F40004C0F5D1F02C081918D93A417B507D9F78F
:100F50000BC0E02FF0E085E0EE0FFF1F8A95E1F770
:100F6000EB53FE4F8081888380E001C083E0DF91F6
:100F7000CF911F910F91FF90089581E0F816B1F77E
:100F8000E8CFEF92FF921F93CF93DF93162F7A0152
:100F9000B99ABA9AC29AC1980E947808812F0E9481
:100FA0005107C0E0D0E0F701EC0FFD1F80810E94E7
:100FB00051072196C830D105B1F788EB8A95F1F732
:100FC00080E00E947808DF91CF911F91FF90EF9011
:100FD0000895DF92EF92FF920F931F93082F162F21
:100FE000F42EE22ED32E0E947208882311F081E0A5
:100FF00036C0183010F082E032C0612F70E04F2D03
:1010000050E0CA01860F971F099714F083E027C0AC
:101010008E2D9D2DFC01202F30E0D90115E0AA0F67
:10102000BB1F1A95E1F7A60FB71FAB53BC4F4E0F6E
:101030005F1F02C081918D93E417F507D9F7F9017D
:1010400025E0EE0FFF1F2A95E1F7AF014B535C4FF0
:10105000802FEB53FE4F60810E94C10780E01F91FB
:101060000F91FF90EF90DF900895DF92EF92FF9243
:101070000F931F93F82ED62E142FE22E0E94720883
:10108000882311F081E028C088ECD81611F082E0A6
:1010900023C087E08E1510F483E01EC04F2D50E072
:1010A000802F90E002C0880F991FEA94E2F7612F29
:1010B0006823109505E0440F551F0A95E1F7FA01E2
:1010C000EB53FE4F80818123682B60834B535C4F31
:1010D0008F2D0E94C10780E01F910F91FF90EF902C
:1010E000DF90089590E0883008F091E0892F08950E
:1010F000982F883010F081E0089588B39295990F69
:10110000907E8F71892B88BB80E00895982F809105
:101110009B0085FFFCCF90939C0083EB92E00197AE
:10112000F1F7089580919B0087FFFCCF80919C0090
:1011300008958FB9779BFECF8FB108951FB8779B25
:10114000FECF8FB108951F93162F0E9478088DE36C
:1011500093E00197F1F780919B0085FFFCCF1093FE
:101160009C0083EB92E00197F1F780E01F910895D6
:10117000CF93DF93EB010E9478088DE393E0019712
:10118000F1F720E030E008C02F5F3F4F8FEF2F3F97
:10119000380711F481E008C080919B0087FFF4CFED
:1011A00080919C00888380E0DF91CF9108955D9BC2
:1011B000FECF8CB908955F9BFECF8CB1089584E972
:1011C00080937400089584EA809374008091740081
:1011D00087FFFCCF80917100887F883011F480E018
:1011E000089584E98093740081E0089584E98093F0
:1011F0007400089584EA809374008091740087FFDE
:10120000FCCF80917100887F803111F480E00895D7
:1012100084E98093740082E0089590E0880F991F1C
:101220008093730084E8809374008091740087FF3A
:10123000FCCF80917100887F883119F084E9809318
:1012400074000895880F8F5F8093730084E8809303
:1012500074008091740087FFFCCF80917100887FBB
:10126000803419F084E980937400089580937300AA
:1012700084E8809374008091740087FFFCCF809194
:101280007100887F883219F084E980937400089592
:1012900084EC809374008091740087FFFCCF809170
:1012A0007100887F803519F084E980937400809103
:1012B0007300089584E8809374008091740087FF20
:1012C000FCCF80917100887F883519F084E9809384
:1012D00074000895FF920F931F93182F062FF42E7A
:1012E0000E94E308812F0E940D09802F0E94360979
:1012F0008F2D0E94360984E9809374001F910F910D
:10130000FF9008950F931F93082F162F0E94E30854
:10131000802F0E940D09812F0E9436090E94FA0831
:10132000802F0E9422090E944809182F0E945A0902
:1013300084E980937400812F1F910F910895809309
:1013400070000895EF92FF920F931F93182F062FAE
:10135000F72EE42E0E94E308813009F441C0812F6A
:1013600090E0880F991F90708093730084E88093B9
:1013700074008091740087FFFCCF80917100887F9A
:10138000883139F4802F9F2D9C01F90190E024E8E9
:101390001AC084E98093740083E022C08081809326
:1013A0007300209374008091740087FFFCCF8091BC
:1013B00071003196887F883229F084E98093740027
:1013C00084E00EC09F5F9E1548F381E08E1520F4E7
:1013D00084E98093740003C081E08093C40180E0BD
:1013E0001F910F91FF90EF9008950F931F93CF934C
:1013F000DF93082FEB01142F8091C401813041F459
:101400000E94FA08823009F474C01092C40102C02C
:101410000E94E308813009F46CC0802F90E0880FAF
:10142000991F81608093730084E880937400809199
:10143000740087FFFCCF80917100887F803429F091
:1014400084E98093740085E054C01230D0F140E00C
:10145000212F30E02150304054EC17C050937400DD
:101460008091740087FFFCCF80917100887F803568
:1014700029F084E98093740086E03BC0809173007A
:10148000FE01E40FF11D80834F5F842F90E08217EF
:10149000930724F384E8809374008091740087FF9D
:1014A000FCCF80917100887F883529F084E9809392
:1014B000740087E01EC080917300C10FD11D219779
:1014C00013C084E8809374008091740087FFFCCF80
:1014D00080917100887F883529F084E980937400B9
:1014E00088E007C080917300888384E9809374004A
:1014F00080E0DF91CF911F910F9108955058BB2745
:10150000AA270ED0E0C0D1D030F0D6D020F031F4F0
:101510009F3F11F41EF4C6C00EF4E095E7FBBCC07B
:10152000E92FE2D080F3BA176207730784079507A3
:1015300018F071F49EF5FAC00EF4E0950B2EBA2F58
:10154000A02D0B01B90190010C01CA01A0011124C9
:10155000FF27591B99F0593F50F4503E68F11A1675
:10156000F040A22F232F342F4427585FF3CF469506
:1015700037952795A795F0405395C9F77EF41F1628
:10158000BA0B620B730B840BBAF09150A1F0FF0FF2
:10159000BB1F661F771F881FC2F70EC0BA0F621FDE
:1015A000731F841F48F4879577956795B795F795CE
:1015B0009E3F08F0B3CF9395880F08F09927EE0F60
:1015C00097958795089598D088F09F5790F0B92FF8
:1015D0009927B751A0F0D1F0660F771F881F991F88
:1015E0001AF0BA95C9F712C0B13081F09FD0B1E0BE
:1015F00008959CC0672F782F8827B85F39F0B93FCE
:10160000CCF3869577956795B395D9F73EF4909589
:101610008095709561957F4F8F4F9F4F0895E89407
:1016200009C097FB3EF490958095709561957F4F2A
:101630008F4F9F4F9923A9F0F92F96E9BB279395D8
:10164000F695879577956795B795F111F8CFFAF4E8
:10165000BB0F11F460FF1BC06F5F7F4F8F4F9F4F19
:1016600016C0882311F096E911C0772321F09EE877
:10167000872F762F05C0662371F096E8862F70E0DD
:1016800060E02AF09A95660F771F881FDAF7880FB7
:101690009695879597F9089597F99F6780E870E088
:1016A00060E008959FEF80EC089500240A941616D8
:1016B000170618060906089500240A941216130640
:1016C000140605060895092E0394000C11F48823CE
:1016D00052F0BB0F40F4BF2B11F460FF04C06F5FEA
:1016E0007F4F8F4F9F4F089557FD9058440F551FC0
:1016F00059F05F3F71F04795880F97FB991F61F094
:101700009F3F79F087950895121613061406551F0A
:10171000F2CF4695F1DF08C0161617061806991F76
:10172000F1CF86957105610508940895E894BB276B
:1017300066277727CB0197F908950BD0C4CFB5DF83
:1017400028F0BADF18F0952309F0A6CFABCF11240B
:10175000EECFCADFA0F3959FD1F3950F50E0551F50
:10176000629FF001729FBB27F00DB11D639FAA27F6
:10177000F00DB11DAA1F649F6627B00DA11D661F45
:10178000829F2227B00DA11D621F739FB00DA11D66
:10179000621F839FA00D611D221F749F3327A00D20
:1017A000611D231F849F600D211D822F762F6A2FBC
:1017B00011249F5750408AF0E1F088234AF0EE0F41
:1017C000FF1FBB1F661F771F881F91505040A9F74E
:1017D0009E3F510570F060CFAACF5F3FECF3983E7B
:1017E000DCF3869577956795B795F795E7959F5FB5
:1017F000C1F7FE2B880F911D9695879597F908954F
:101800002F923F924F925F926F927F928F929F9210
:10181000AF92BF92CF92DF92EF92FF920F931F93FE
:10182000DF93CF93CDB7DEB761970FB6F894DEBFE5
:101830000FBECDBF3C017F876E876A01FC01178216
:101840001682838181FD03C06FEF7FEF6FC39E011E
:101850002F5F3F4F398B288BF3012381EE85FF8566
:1018600023FD859123FF8191FF87EE87882309F46B
:101870005AC3853251F4EE85FF8523FD859123FF00
:101880008191FF87EE87853229F490E0B3010E94B1
:101890004115E2CF982F10E0882499241032B0F43B
:1018A0009B3269F09C3228F4903251F0933271F4FB
:1018B0000BC09D3239F0903349F4116028C012609A
:1018C000146025C0186023C0106121C017FD2AC014
:1018D000892F80538A3078F416FF06C0FAE09F9E65
:1018E000902C1124980E13C03AE0839E802C112472
:1018F000880E10620CC09E3221F416FD14C31064D1
:1019000006C09C3611F4106802C0983659F4EE8572
:10191000FF8523FD959123FF9191FF87EE87992302
:1019200009F0BCCF892F8554833020F4812F80614A
:10193000905E07C0892F8556833008F09FC1812FA4
:101940008F7E86FD02C076E0972E6FE3F62EF8229A
:10195000953619F4F0E4FF2A07C0963619F420E80A
:10196000F22A02C091109A94F7FE0AC03BE339159F
:1019700018F45CE3B52E02C0B92CB39427E009C07B
:1019800047E0491520F4BB2447E0942EF7CF292DDA
:10199000BB24C60104969D878C87F6016081718106
:1019A00082819381AE014F5F5F4F0B2D0E94F61332
:1019B0006C010981202E332400FF04C003FD02C006
:1019C0001DE209C0F1FE02C01BE205C0F2FC02C02C
:1019D00010E001C010E2C1018C709070892BB9F148
:1019E000112311F483E001C084E0881510F08824ED
:1019F0000AC0881AF3FC07C080E290E0B3010E949D
:101A000041158A94C9F7112329F0812F90E0B30181
:101A10000E94411523FE03C00CE810E00EC000E94F
:101A200010E00BC0E114F10409F0805290E0B30122
:101A30000E9441150F5F1F4F05C0EF2CFF24F0E1FE
:101A4000EF22FF24F8018491882361F714C1F7FE87
:101A500012C0BC0C24FE04C08A81813309F4BA94FC
:101A60001B141CF0BB24B3942DC0F8E0FB1550F5FB
:101A700038E0B32E27C0F6FC25C0892D90E08C15E8
:101A80009D054CF02CEFC2162FEFD20624F030E863
:101A9000F32A01C09A94992049F0E2E0F0E0EC0FBB
:101AA000FD1FE90DF11D80818033A1F3F7FE0AC00F
:101AB000B92CB394892D90E0C816D90614F0992456
:101AC00001C09C18F7FC03C025E030E009C01C14DD
:101AD0001D041CF021E030E003C096012F5F3F4F52
:101AE000112311F02F5F3F4F992029F0892D90E0AD
:101AF0000196280F391F882D90E02817390714F018
:101B0000882401C0821A4F2C5524C201897090701C
:101B1000892B39F008C080E290E0B3010E944115A2
:101B20008A948820C1F7112329F0812F90E0B30116
:101B30000E94411543FE07C008C080E390E0B30156
:101B40000E9441158A948820C1F7F7FE46C086019D
:101B5000D7FE02C000E010E076010894E11CF11C01
:101B6000E01AF10A41E050E04C0F5D1FE40EF51E53
:101B700026014B185108892D90E0AA24BB24A81AED
:101B8000B90A5FEF0F3F150729F48EE290E0B30129
:101B90000E944115C016D10634F0401651061CF4BF
:101BA000F701808101C080E3015010400894E11CDE
:101BB000F11C0A151B052CF090E0B3010E944115A1
:101BC000E0CF0C151D0539F49A81963318F495333E
:101BD00011F424FE81E390E04BC08A81813309F047
:101BE0000F7E90E0B3010E9441159920A1F08EE292
:101BF00090E0B3010E94411512E0E1E0F0E0EC0F4B
:101C0000FD1FE10FF11D1F5F808190E0B3010E9475
:101C100041159A9491F744FC03C085E690E002C018
:101C200085E490E0B3010E944115D7FC05C0C114C2
:101C3000D10441F404FF06C0D094C194D108D394D8
:101C40008DE201C08BE290E0B3010E94411580E378
:101C500005C08F5F26EF3FEFC20ED31E3AE0C316DA
:101C6000D104BCF790E0B3010E944115C601C096B3
:101C7000B3010E944115CC84DD8452C1933631F00A
:101C8000933799F0933509F059C023C0F60180814C
:101C900089835E010894A11CB11C22E030E0C20ED1
:101CA000D31E21E0E22EF12C12C0F601A080B180FB
:101CB00016FD03C06FEF7FEF02C0692D70E022E0D8
:101CC00030E0C20ED31EC5010E94F4147C011F77C0
:101CD00013C0F601A080B18016FD03C06FEF7FEF47
:101CE00002C0692D70E022E030E0C20ED31EC501B3
:101CF0000E94E9147C01106813FF07C01BC080E23A
:101D000090E0B3010E9441158A94882D90E0E81676
:101D1000F906A8F30FC0F50117FD859117FF819112
:101D20005F0190E0B3010E94411581108A940894EC
:101D3000E108F108E114F10471F7F2C0943611F0F2
:101D4000993689F517FF08C0F6012081318142815B
:101D5000538184E090E00AC0F601808191819C016A
:101D6000442737FD4095542F82E090E0C80ED91EDD
:101D70009FE6F92EF12257FF09C050954095309506
:101D800021953F4F4F4F5F4F90E8F92ACA01B901A3
:101D9000AE014F5F5F4F2AE030E00E94E015E82E71
:101DA000E889EE1A41C0953721F41F7E2AE030E021
:101DB0001CC0197F9F3661F0903720F4983509F0E8
:101DC000B2C00FC0903739F0983709F0ACC004C0EA
:101DD00028E030E00AC0106114FD146020E130E01A
:101DE00004C014FD166020E132E017FF08C0F601C0
:101DF000608171818281938144E050E008C0F601E6
:101E000080819181BC0180E090E042E050E0C40E0E
:101E1000D51EAE014F5F5F4F0E94E015E82E588936
:101E2000E51A8FE7F82EF122F6FE0BC08EEFF822AE
:101E3000E91438F4F4FE07C0F2FC05C09FEEF92265
:101E400002C01E2D01C0192DF4FE0DC0FE01EE0DC5
:101E5000F11D8081803319F4E9EEFE2208C01F5F76
:101E6000F2FE05C003C08F2D867809F01F5F0F2D8D
:101E7000F3FC14C0F0FE0FC0181510F09E2C0BC020
:101E80009E2C980C911A182D06C080E290E0B301A8
:101E90000E9441151F5F1815C0F304C0181510F4F7
:101EA000811A01C0882404FF0FC080E390E0B301D1
:101EB0000E94411502FF1DC001FD03C088E790E0AC
:101EC0000EC088E590E00BC0802F867891F001FF6E
:101ED00002C08BE201C080E2F7FC8DE290E0B3012A
:101EE0000E94411506C080E390E0B3010E944115B5
:101EF0009A94E914C0F3EA94E1E0F0E0EC0FFD1FDE
:101F0000EE0DF11D808190E0B3010E944115EE209D
:101F100091F706C080E290E0B3010E9441158A94D7
:101F20008820C1F799CCF30166817781CB01619656
:101F30000FB6F894DEBF0FBECDBFCF91DF911F91DA
:101F40000F91FF90EF90DF90CF90BF90AF909F9058
:101F50008F907F906F905F904F903F902F9008955B
:101F6000FC0120FD08C023FD05C022FF02C07383D1
:101F70006283518340830895EF92FF920F931F93E2
:101F800044FF02C033E011C046FF02C034E00DC080
:101F9000DB01FC01AA0FBB1FEE1FFF1F1094D1F73E
:101FA0006A0F7B1F8E1F9F1F31E0660F771F881FF0
:101FB000991F3150D1F77B018C01E20EF11C011DFC
:101FC000111DA8019701B701CA011F910F91FF9040
:101FD000EF9008950F931F93CF93DF938C01C80167
:101FE0000E94FF14EC0197FD08C00E94CE14892BBB
:101FF000B1F7CE01B8010E94C615CE01DF91CF9195
:102000001F910F9108958F929F92AF92BF92DF928E
:10201000EF92FF920F931F93CF93DF935C01EB013D
:102020004A01122F0E94FF14AC018B3219F08D323D
:1020300051F41068219709F46DC0C5010E94FF1486
:10204000AC0197FD67C06DEFD62ED1228D2D807328
:1020500001F54033F1F4219709F447C0C5010E940E
:10206000FF14AC0197FD41C082E0D82A483711F037
:10207000483559F480E4D82A2197B9F1C5010E9466
:10208000FF14AC0199232CF430C0D6FC02C080E1CF
:10209000D82AEE24FF248701242F2053283088F0EB
:1020A000D4FC09C02A3068F0D6FE05C02F7D822FEF
:1020B0008151863028F0CA01B5010E94C61512C0B0
:1020C0002750C801B7014D2D0E94BC0F7B018C0128
:1020D00082E0D82A219761F0C5010E94FF14AC016B
:1020E00097FFDACFD1FC04C015C0EE24FF2487018E
:1020F000D7FE08C010950095F094E094E11CF11C07
:10210000011D111DC401B801A7012D2D0E94B00FA2
:1021100081E001C080E0DF91CF911F910F91FF908E
:10212000EF90DF90BF90AF909F908F9008956F9247
:102130007F928F929F92AF92BF92CF92DF92EF9257
:10214000FF920F931F93DF93CF93CDB7DEB7A09786
:102150000FB6F894DEBF0FBECDBF5C016B018A01E4
:102160007901FE01319680E2DF011D928A95E9F73F
:1021700070E030E060E040E050E03F01A1E0B0E01E
:10218000F5018381F70183FD259183FF21917F0173
:10219000222309F481C02E3519F44115510569F146
:1021A000872F90E08417950744F42D3551F12D3297
:1021B00021F4332329F431E021C0332309F4622FC1
:1021C000322F832F869586958695F301E80FF11DB2
:1021D000832F87704D0102C0880C991C8A95E2F705
:1021E000208128292083361711F430E007C03617E4
:1021F00010F43F5FE6CF3150E4CF71E04F5F5F4FA7
:10220000BFCF332319F08E8180628E83772359F0FC
:10221000FE0131969E012F5D3F4F80818095819315
:10222000E217F307D1F7992493943E010894611CB7
:10223000711CC5010E94FF14AC0197FD25C0869555
:1022400086958695F301E80FF11D808190E09A0153
:102250002770307002C0959587952A95E2F780FD2A
:1022600005C0CA01B5010E94C6150EC001151105B1
:1022700019F0D8014D938D010894C108D108992413
:10228000C114D104B1F602C0992031F40115110531
:1022900029F0F801108202C0EE24FF24C701A096A5
:1022A0000FB6F894DEBF0FBECDBFCF91DF911F9167
:1022B0000F91FF90EF90DF90CF90BF90AF909F90E5
:1022C0008F907F906F9008952F923F925F926F92C0
:1022D0007F928F929F92AF92BF92CF92DF92EF92B6
:1022E000FF920F931F93CF93DF933C017B011A0161
:1022F0000E94FF14EC018B3239F08D3211F055241D
:1023000011C0B0E85B2E01C055240894E108F10823
:10231000E114F10409F418C1C3010E94FF14EC0197
:1023200097FD12C1CE010E94D6148936910521F085
:102330008E36910599F51DC009EA10E01CC008947D
:10234000E108F108E114F10471F0C3010E94FF14E7
:10235000EC0197FD08C00E94D614D81661F0CE019A
:10236000B3010E94C61520E00C3A120709F0ECC038
:1023700008C006EA10E0F8010F5F1F4FD490DD207F
:10238000F1F6095A104029F080E090E0A0E8BFE79C
:10239000CFC080E090E0A0ECBFE7CAC0CC24DD2431
:1023A000882499245401AE014053242F4A3038F533
:1023B00052E0552A852D90E0AC014870507052FED5
:1023C00006C0452B11F50894C11CD11C1EC0452B1D
:1023D00019F00894C108D108C501B40140E20E9477
:1023E000BC0F4B015C0188E9881689E9980689E9E8
:1023F000A80689E1B80648F094E0592A06C04E3F85
:1024000081F453FC0EC0E8E05E2A0894E108F1086C
:10241000E114F10431F0C3010E94FF14EC0197FFB5
:10242000C2CF51FE91C0C53619F0C53409F046C07F
:102430000894E108F108E114F10409F485C0C3012E
:102440000E94FF14EC0197FD7FC08B3221F08D328A
:1024500069F4F0E15F2A0894E108F108E114F1045D
:1024600009F472C0C3010E94FF14EC01CE01C097B1
:102470000A9708F069C000E010E0B801882777FDEE
:102480008095982FAE014053242F40E20E94BC0F4C
:102490008B010894E108F108E114F10439F0C3015B
:1024A0000E94FF14EC01C0970A9738F3B80154FE5C
:1024B00003C0709561957F4FC60ED71EEF2831F08F
:1024C000D7FD04C0CE01B3010E94C615C501B401F9
:1024D0000E940F0BD7FE0DC0A5ECEA2EA0E0FA2E4D
:1024E000D094C194D108D394C0E2D0E000E010E0D1
:1024F0000EC0FDEDEF2EF0E0FF2EF6CFF701259197
:102500003591459154910E949D0BCC1ADD0ACC1651
:10251000DD06A0F7D695C7950F5F1F4F0630110552
:1025200029F0ECEFFFEFEE0EFF1EF1CFDC01CB0147
:1025300057FCB0582114310429F0F10180839183B4
:10254000A283B38381E001C080E0DF91CF911F912E
:102550000F91FF90EF90DF90CF90BF90AF909F9042
:102560008F907F906F905F903F902F9008955F9233
:102570006F927F928F929F92AF92BF92CF92DF9293
:10258000EF92FF920F931F93CF93DF934C015B0168
:102590003A01FC0117821682552404C1812F90E074
:1025A0000E94CE14892B21F0C4010E94EA0FFAC0C8
:1025B000153249F4F501F3FC6591F3FE61915F0179
:1025C000653269F415E2C4010E94FF1497FDF6C05C
:1025D000181709F4E7C0B4010E94C615F4C06A32A6
:1025E00019F0162F00E006C0F3FC1591F3FE1191CF
:1025F0005F0101E0CC24DD240EC00260B60180E062
:1026000090E040E20E94BC0F6B01F501F3FC1591D4
:10261000F3FE11915F01212F20532A3070F301FD49
:1026200004C0CC24CA94DC2C04C0C114D10409F425
:10263000CAC0183621F01C3699F4F5010BC0F5011B
:10264000F3FC6591F3FE6191683619F05F01162F76
:1026500007C008600460F3FC1591F3FE11915F015F
:10266000112309F4B0C084E990E0612F70E00E946A
:10267000DE14892B09F4A7C0802F00FF03C0EE24CD
:10268000FF2407C0F301E080F18022E030E0620E19
:10269000731E1E3651F4F4014681578160E070E0EC
:1026A000C701202F0E94B00F7DC01336B9F481FD01
:1026B00003C011E0C12ED12CC4010E94FF1497FD6C
:1026C0007DC0E114F10419F0F70181937F010894B2
:1026D000C108D108C114D10479F762C01B3559F47F
:1026E000C401B601A70195010E9497105C010097F3
:1026F00009F056C050C0C4010E94EA0F97FD5EC0A9
:102700001F36D1F1103738F41436A1F11936A9F17A
:102710001835D1F52DC0133751F0143718F4103790
:1027200099F526C0153731F1183771F521C0C4016C
:102730000E94FF14EC0197FD15C00E94CE14892B56
:1027400029F0CE01B4010E94C6150CC0E114F104B9
:1027500019F0F701C1937F010894C108D108C11491
:10276000D10429F7E114F104D9F0F701108218C05F
:10277000006403C0006201C00061C401B601A7018A
:10278000202F0E94031005C0C401B601A7010E94BA
:102790006411882329F4F4018381807379F413C0D0
:1027A00000FF5394F401F380F501F3FC1591F3FE5F
:1027B00011915F01112309F0F1CE05C0552019F4E4
:1027C0002FEF3FEF02C0252D30E0C901DF91CF91FF
:1027D0001F910F91FF90EF90DF90CF90BF90AF903F
:1027E0009F908F907F906F905F900895283008F0B1
:1027F00027E03327DA01990F311D87FD916000969C
:102800006105710539F432602E5F3D9330E32A95FE
:10281000E1F708959F3F30F080387105610509F0B8
:102820003C5F3C5F3D93913008F08068911DDF93E1
:10283000CF931F930F93FF92EF92192F987F969546
:10284000E92F96959695E90FFF27E55CFE4F9927AE
:102850003327EE24FF24A701E7010590089407948D
:1028600028F4360FE71EF81E491F511D660F771F0B
:10287000881F991F0694A1F70590079428F4E70E86
:10288000F81E491F561FC11D770F881F991F661F0D
:102890000694A1F70590079428F4F80E491F561FD7
:1028A000C71FD11D880F991F661F771F0694A1F7B8
:1028B0000590079420F4490F561FC71FD81F990F82
:1028C000661F771F881F0694A9F7849110951770CB
:1028D00041F0D695C79557954795F794E7941A9583
:1028E000C1F7E1EEF0E0689415901591359165918E
:1028F000959105907FE27395E118F10A430B560B11
:10290000C90BD009C0F7E10CF11E431F561FC91FA8
:10291000D01D7EF4703311F48A95E6CFE89401500F
:1029200030F0080F0AF40027021708F4202F23952F
:10293000022F7A3328F079E37D932A95E9F710C0C6
:102940007D932A9589F606949795679537951795FF
:102950001794E118F10A430B560BC90BD00998F0F4
:1029600023957E9173957A3308F070E37C9320135E
:10297000B8F77E9170617D9330F0839571E37D931C
:1029800070E32A95E1F71124EF90FF900F911F91CA
:10299000CF91DF91992787FD9095089591116EC190
:1029A000803219F089508550D0F70895911108951B
:1029B00081548A5108F4805E855A0895FC0105907F
:1029C000061621F00020D9F7C00108953197CF01F4
:1029D0000895FC010590615070400110D8F7809572
:1029E00090958E0F9F1F0895FC01615070400190DB
:1029F0000110D8F7809590958E0F9F1F0895CF9363
:102A0000DF93EC014B8140FF1AC046FF0AC04F7BA9
:102A10004B838E819F8101969F838E838A81282F8D
:102A20002BC042FF13C0E881F9818081282F332712
:102A300027FD30952115310529F440624B832FEF96
:102A40003FEF1BC03196F983E88311C0EA85FB850F
:102A5000CE0109959C0197FF0AC09B812F5F3F4FD4
:102A600011F080E201C080E1892B8B83E8CF8E8159
:102A70009F8101969F838E8330E0C901DF91CF91C2
:102A800008950F931F93CF93DF938C01EB018B81FC
:102A900081FF1BC082FF0DC02E813F818C819D81F3
:102AA0002817390764F4E881F9810193F983E883F1
:102AB00006C0E885F985802F0995892B31F48E8130
:102AC0009F8101969F838E8302C00FEF1FEFC80185
:102AD000DF91CF911F910F910895DF93CF93CDB7E1
:102AE000DEB7FE013596619171918091C804909195
:102AF000C904AF010E94000CCF91DF9108950F939C
:102B00001F93CF93DF938C01E091C804F091C90427
:102B1000838181FF21C0C0E0D0E00DC0E091C804F6
:102B2000F091C90420853185BF01F9010995892BF0
:102B300011F0CFEFDFEFF80181918F01882371F75A
:102B4000E091C804F091C904208531858AE0BF0175
:102B5000F9010995892B11F0CFEFDFEFCE01DF915D
:102B6000CF911F910F910895DF93CF93CDB7DEB72B
:102B7000FE013596619171918091C6049091C704D0
:102B8000AF010E94B712CF91DF9108959C01FB0124
:102B9000838180FF11C086FD0FC09FEF2F3F390753
:102BA00059F0228380648F7D83838681978101978A
:102BB0009783868330E002C02FEF3FEFC90108956D
:102BC000FA01AA27283051F1203181F1E8946F935E
:102BD0006E7F6E5F7F4F8F4F9F4FAF4FB1E03ED004
:102BE000B4E03CD0670F781F891F9A1FA11D680FA2
:102BF000791F8A1F911DA11D6A0F711D811D911DD5
:102C0000A11D20D009F468943F912AE0269F112449
:102C10003019305D3193DEF6CF010895462F4770AD
:102C2000405D4193B3E00FD0C9F7F6CF462F4F7008
:102C3000405D4A3318F0495D31FD4052419302D066
:102C4000A9F7EACFB4E0A69597958795779567950C
:102C5000BA95C9F700976105710508959B01AC010C
:102C60000A2E06945795479537952795BA95C9F733
:102C7000620F731F841F951FA01D08959927882731
:062C80000895F894FFCF57
:102C86000A696E697469616C000A456E7465722022
:102C9600646567726565203A200025640045727296
:102CA6006F7220696E20707574202564200A0045B5
:102CB60072726F7220696E20736574202564200A13
:102CC600004572726F7220696E20676574202564F4
:102CD600200A0025640A0000000003000000009995
:062CE60003A7030000003B
:00000001FF
